{"abi":[{"type":"function","name":"anchorRoot","inputs":[{"name":"root","type":"uint256","internalType":"uint256"}],"outputs":[],"stateMutability":"nonpayable"},{"type":"function","name":"isRoot","inputs":[{"name":"","type":"uint256","internalType":"uint256"}],"outputs":[{"name":"","type":"bool","internalType":"bool"}],"stateMutability":"view"},{"type":"event","name":"RootAnchored","inputs":[{"name":"root","type":"uint256","indexed":false,"internalType":"uint256"},{"name":"by","type":"address","indexed":true,"internalType":"address"}],"anonymous":false}],"bytecode":{"object":"0x608060405234801561000f575f80fd5b5061011a8061001d5f395ff3fe6080604052348015600e575f80fd5b50600436106030575f3560e01c80634431cc50146034578063e527b966146045575b5f80fd5b6043603f36600460ce565b6078565b005b6064605036600460ce565b5f6020819052908152604090205460ff1681565b604051901515815260200160405180910390f35b5f8181526020819052604090819020805460ff191660011790555133907f5061ae1365cae2f1b1ac92f772ea8ee347683725e7ab052e67da1b4118915efe9060c39084815260200190565b60405180910390a250565b5f6020828403121560dd575f80fd5b503591905056fea2646970667358221220d764024e915890496040db3b878fc7acce8045ab0bd484c94cee92fa88551f3564736f6c63430008140033","linkReferences":{}},"methodIdentifiers":{"anchorRoot(uint256)":"4431cc50","isRoot(uint256)":"e527b966"},"id":1}