{"abi":[{"type":"function","name":"anchor","inputs":[{"name":"receiptHash","type":"bytes32","internalType":"bytes32"}],"outputs":[],"stateMutability":"nonpayable"},{"type":"function","name":"anchored","inputs":[{"name":"","type":"bytes32","internalType":"bytes32"}],"outputs":[{"name":"","type":"bool","internalType":"bool"}],"stateMutability":"view"},{"type":"function","name":"isAnchored","inputs":[{"name":"receiptHash","type":"bytes32","internalType":"bytes32"}],"outputs":[{"name":"","type":"bool","internalType":"bool"}],"stateMutability":"view"},{"type":"event","name":"ReceiptAnchored","inputs":[{"name":"receiptHash","type":"bytes32","indexed":true,"internalType":"bytes32"},{"name":"sender","type":"address","indexed":true,"internalType":"address"}],"anonymous":false}],"bytecode":{"object":"0x608060405234801561000f575f80fd5b506101978061001d5f395ff3fe608060405234801561000f575f80fd5b506004361061003f575f3560e01c80634f0b580114610043578063dd64914614610079578063eecdf9271461009b575b5f80fd5b61006561005136600461014a565b5f9081526020819052604090205460ff1690565b604051901515815260200160405180910390f35b61006561008736600461014a565b5f6020819052908152604090205460ff1681565b6100ae6100a936600461014a565b6100b0565b005b5f8181526020819052604090205460ff16156101055760405162461bcd60e51b815260206004820152601060248201526f105b1c9958591e48185b98da1bdc995960821b604482015260640160405180910390fd5b5f81815260208190526040808220805460ff1916600117905551339183917fc05da46140e8c8413b40194376720965a8272a288dc22dc03bc37467d8322d1e9190a350565b5f6020828403121561015a575f80fd5b503591905056fea264697066735822122023fb197ba48141dca20860f12ced251a26c00d70e97e1ac76c268006948a17b064736f6c63430008140033","linkReferences":{}},"methodIdentifiers":{"anchor(bytes32)":"eecdf927","anchored(bytes32)":"dd649146","isAnchored(bytes32)":"4f0b5801"},"id":0}