{"abi":[{"type":"function","name":"verifyProof","inputs":[{"name":"_pA","type":"uint256[2]","internalType":"uint256[2]"},{"name":"_pB","type":"uint256[2][2]","internalType":"uint256[2][2]"},{"name":"_pC","type":"uint256[2]","internalType":"uint256[2]"},{"name":"_pubSignals","type":"uint256[2]","internalType":"uint256[2]"}],"outputs":[{"name":"","type":"bool","internalType":"bool"}],"stateMutability":"view"}],"bytecode":{"object":"0x608060405234801561000f575f80fd5b5061059e8061001d5f395ff3fe608060405234801561000f575f80fd5b5060043610610029575f3560e01c8063f5c9d69e1461002d575b5f80fd5b61004061003b36600461050c565b610054565b604051901515815260200160405180910390f35b5f6104bb565b7f30644e72e131a029b85045b68181585d2833e84879b9709143e1f593f00000018110610089575f805260205ff35b50565b5f60405183815284602082015285604082015260408160608360076107d05a03fa9150816100bc575f805260205ff35b825160408201526020830151606082015260408360808360066107d05a03fa915050806100eb575f805260205ff35b5050505050565b7f2ae29cf1a3114186f1ef6dac7dd12d43b4e282165f1fe81eb35ca884362244dd85527f29e2d19d24ba2e7d144347c335556ebda71b8c0f0d21b615ecf846466017f52060208601525f608086018661018d87357e730e60eda540e16dea0e6cee1e6b0b5ab920d7634465d0a3278d2de7bd4e877f1a07c89533a5d8735153a37e099db4ff8b40cd012f100d4ba191d9906bb90f4e8461008c565b6101dd60208801357f2c1e3f4e93c53262a7e9f5caeacb4fe4aaee7baea1cd68efc4449ddb1b217f857f139e6e90f2014a7a0aef495d653ed0b28195ddc7641463f875505ccf6144fadd8461008c565b50823581527f30644e72e131a029b85045b68181585d97816a916871ca8d3c208c16d87cfd4760208401357f30644e72e131a029b85045b68181585d97816a916871ca8d3c208c16d87cfd4703066020820152833560408201526020840135606082015260408401356080820152606084013560a08201527f252449ac954a095e84adce25e608343670ab103eebcbdfba24923638542af90d60c08201527f1ca1911e3f4243c3c9059f61b07233616b2bcc3cacfdfed7f53349166988e7d160e08201527f24bd288e210c7114c83bf5e5ec23670e55d19ec2fd0a1e78e4147b79796850066101008201527f0430bfd53db05da11a4e482dbb9bb400021e2b77f458687797998250faa39aa26101208201527f23f1ba08b90ce1fa19898243f62431453f130e66e4d63e4691a75daeb277c3d46101408201527f2971bf0baa37b92a452c4ed296f1387eb38df3f527d9e05090b6f320cea8df956101608201525f87015161018082015260205f018701516101a08201527f198e9393920d483a7260bfb731fb5d25f1aa493335a9e71297e485b7aef312c26101c08201527f1800deef121f1e76426a00665e5c4479674322d4f75edadd46debd5cd992f6ed6101e08201527f090689d0585ff075ec9e99ad690c3395bc4b313370b38ef355acdadcd122975b6102008201527f12c85ea5db8c6deb4aab71808dcb408fe3d1e7690c43d37b4ce6cc0166fa7daa610220820152843561024082015260208501356102608201527f01d1aedf5ffe2ec066fdcdc228b40273036ba74a0f6be853a80dbb9fedaa723c6102808201527f12ee79582fb214894a029d3e53ee64dad18675ebde5f546ddddcbe98189087556102a08201527f30558d2e7c71794541c025c00391fbc0640988217c8c9b6a3979a2aa0c2603456102c08201527f21adbb3cd00557c070e4e37dc80123556b85ce14e5b56895e676ddb6ff8f30b16102e08201526020816103008360086107d05a03fa9051169695505050505050565b60405161038081016040526104d25f84013561005a565b6104df602084013561005a565b6104ec818486888a6100f2565b9050805f5260205ff35b8060408101831015610506575f80fd5b92915050565b5f805f806101408587031215610520575f80fd5b61052a86866104f6565b935060c085018681111561053c575f80fd5b60408601935061054c87826104f6565b92505061055d8661010087016104f6565b90509295919450925056fea2646970667358221220ce4cedc9878d2a73c6a5bc40fd5508f8d1ce505b0684a2bbee340bdf2395c6f464736f6c63430008140033","linkReferences":{}},"methodIdentifiers":{"verifyProof(uint256[2],uint256[2][2],uint256[2],uint256[2])":"f5c9d69e"},"id":0}